:1000000078C00000BFC1000094C0000092C0000092
:1000100090C000008EC000008CC000008AC00000AC
:1000200088C0000086C0000084C0000082C00000BC
:1000300080C000007EC000007CC000007AC00000CC
:1000400078C0000029C2000074C0000072C0000027
:1000500070C000006EC000006CC000006AC00000EC
:1000600068C0000066C0000064C0000062C00000FC
:1000700060C000005EC000005CC000005AC000000C
:1000800058C0000056C0000054C0000052C000001C
:1000900050C000004EC000004CC000004AC000002C
:1000A00048C0000046C0000044C0000042C000003C
:1000B00040C000003EC000003CC000003AC000004C
:1000C00038C0000036C0000034C0000032C000005C
:1000D00030C000002EC000002CC000002AC000006C
:1000E00028C000006D03B403F60332043C043E0450
:1000F000760411241FBECFEFD1E2DEBFCDBF00E0FA
:100100000CBF16E0A0E0B2E0ECE8F4E100E00BBFC9
:1001100002C007900D92AE34B107D9F726E0AEE4E5
:10012000B6E001C01D92A337B207E1F7F1D40C94F9
:10013000440A66CFFC010FB6F89460916F06709187
:10014000700680917106909172060FBE309721F073
:10015000608371838283938308951092CD0083E33B
:100160008093CC0088E18093C90086E08093CA0028
:100170000895CF93DF93FC012081222369F0DC01F5
:100180001196E8ECF0E0CEECD0E0908195FFFDCF49
:1001900028832D912111F9CFDF91CF910895E8ECBB
:1001A000F0E080818823ECF78091CE000895EF92F3
:1001B000FF920F931F93CF93DF93CDB7DEB72A97AC
:1001C0000FB6F894DEBF0FBECDBFCE0101967C0105
:1001D00000E010E0E4DF8D3011F08A3059F4E1E006
:1001E000F0E0EC0FFD1FE00FF11F1082CE01019631
:1001F00089D506C00F5F1F4FF70181937F01EACFBA
:100200002A960FB6F894DEBF0FBECDBFDF91CF9117
:100210001F910F91FF90EF90089544E050E060E04F
:1002200070E085E192E00E94BE0944E050E064E0A5
:1002300070E081E192E00E94BE0944E050E068E095
:1002400070E08DE092E00E94BE09E8E0F2E00190EB
:100250000020E9F7AF01485052406CE070E088E0C0
:1002600092E00E94BE09E4E0F2E001900020E9F78C
:10027000AF014450524060E170E084E092E00E949F
:10028000BE096091580680E290E00E94CD0960911D
:10029000590688E290E00C94CD090895E2E0F1E07F
:1002A00090819E7F908390819D7F908380930501B4
:1002B000808184608083000080818B7F808383EFD6
:1002C00091E00197F1F700C000000895E2E0F1E04D
:1002D00090819160908390819D7F908380930501B0
:1002E000808184608083000080818B7F808383EFA6
:1002F00091E00197F1F700C000000895E1E0F1E01E
:100300008081876080838FEF8093040187E893E189
:100310000197F1F700C0000088E3C0DF81EE94E0B0
:100320000197F1F700C0000088E3B8DF89EF90E0A3
:100330000197F1F700C0000088E3B0DF8CE0AEDF8A
:1003400081E0ACDF83EF91E00197F1F700C000009E
:1003500086E0A4CF0895CF93DF93EC0188818823B2
:1003600029F02196B3DF89918111FCCFDF91CF91E4
:10037000089581E093DF83EF91E00197F1F700C0EA
:10038000000008951F920F920FB60F9211240BB622
:100390000F922F933F934F935F936F937F938F931E
:1003A0009F93AF93BF93CF93DF93EF93FF93489BBC
:1003B00047C080915506811145C0809156069091A5
:1003C00057060196909357068093560681E08093D6
:1003D0005506EAE0F1E0808183608083CBE0D1E0E4
:1003E000888183608883C5DF80E858DF89E192E0F7
:1003F000B2DF80EC53DF809157068F9380915606D1
:100400008F938BE292E09F938F938BE596E09F937F
:100410008F93C9D48BE596E09EDF2FE382E49FE0C3
:10042000215080409040E1F700C0000088818C7F1F
:1004300088830F900F900F900F900F900F9002C035
:1004400010925506FF91EF91DF91CF91BF91AF913F
:100450009F918F917F916F915F914F913F912F91DC
:100460000F900BBE0F900FBE0F901F901895E1E8F4
:10047000F0E0808188608083AFE6B0E08C9182609C
:100480008C9384E89EE1909389008093880080811A
:1004900085608083789408951F920F920FB60F9213
:1004A00011240BB60F922F933F934F935F936F934B
:1004B0007F938F939F93AF93BF93EF93FF9380911D
:1004C0004E06882381F080914F06882361F0815089
:1004D00080934F06811107C010924E06109250066D
:1004E0008BE392E046DEFF91EF91BF91AF919F9138
:1004F0008F917F916F915F914F913F912F910F90CD
:100500000BBE0F900FBE0F901F90189585B91098D5
:100510001198129A89EF90E00197F1F700C000005E
:10052000129889EF90E00197F1F700C0000008955C
:100530008FEF84B981B1876081B987E893E1019732
:10054000F1F700C0000088E3E1DF8CE0DFDF81E04D
:10055000DDDF86E0DBCF0895FC0190819923A9F0CF
:10056000319695B9109A1198129A89EF90E00197F7
:10057000F1F700C00000129889EF90E00197F1F7C1
:1005800000C0000091919111ECCF089581E0BEDF91
:1005900083EF91E00197F1F700C0000008954091CA
:1005A000150250911602609117027091180280E0B6
:1005B00090E005D740911102509112026091130210
:1005C0007091140284E090E0FAD640910D025091AF
:1005D0000E0260910F027091100288E090E0EFC669
:1005E0000895CF93DF93CDB7DEB72A970FB6F8946F
:1005F000DEBF0FBECDBF4AE0BE016F5F7F4FA8D305
:10060000CE010196B6DD2A960FB6F894DEBF0FBE76
:10061000CDBFDF91CF91089583E895E0AADD809169
:10062000150290911602DDDF87E692E0A2DD80914F
:10063000110290911202D5DF8DE792E09ADD809150
:100640000D0290910E02CDDF81EF95E092CD0895DD
:100650006F927F928F929F92AF92BF92CF92DF92D2
:10066000EF92FF920F931F93CF93DF93CDB7DEB737
:1006700029970FB6F894DEBF0FBECDBFFE013196AD
:1006800085E0DF011D928A95E9F76F9A51DF87DFD8
:10069000712C04E516E00F2EF0E5CF2EF6E0DF2EEC
:1006A000F02D662463947E01B5E0EB0EF11C82E927
:1006B00092E05FDD83EB92E05CDD88E493E059DD5E
:1006C0006EDDE82FF0E0F197E730F10508F012C198
:1006D0008827EE58FF4F8F4FB8C28CE593E049DD75
:1006E0005EDD90E0C0978230910571F08330910516
:1006F000A1F00197D9F48090150290901602A09075
:100700001702B090180216C0809011029090120249
:10071000A0901302B09014020DC080900D02909032
:100720000E02A0900F02B090100204C08DEB93E077
:1007300020DDBDCF88ED93E01CDD39DD092E000CF6
:10074000AA0BBB0B88169906AA06BB0649F460E003
:1007500088E290E022D68FEE93E00BDD762CCDC0C0
:1007600086E194E006DDC9C0711004C087E494E01E
:1007700000DDC3C085E694E0FCDCFE0131965F013C
:100780000EDDD5018D935D0181E994E0F2DCAE14BC
:10079000BF04B1F71D8268E072E0CE010196CFD2AE
:1007A000892B51F080914E068823E1F0B601CE01ED
:1007B0000196C5D2892BB1F483E994E0DADCE6DE58
:1007C00086EA94E0C9DE779ABFE7EFE4F2E1B15040
:1007D000E040F040E1F700C00000779887EB94E03C
:1007E000C8DC8BC089EC94E0C4DC87C081EE94E067
:1007F000C0DC0F2EF0E5AF2EF6E0BF2EF02DCFDCE3
:10080000D5018D935D0181E994E0B3DCA016B106BA
:10081000B1F7F601148289E195E0ABDC4E01F6E018
:100820008F0E911CA12CB12C05C090E0A2DC2FEF03
:10083000A21AB20AB4DCD4018D934D018D30A9F710
:10084000E6E0F0E0EC0FFD1FEA0DFB1D1082CE018B
:10085000069658D280934F0660924E0685E395E047
:1008600088DC4BC0772021F083E595E082DC45C031
:1008700086E594E07EDC41C0CFDE3FC083E695E0B4
:1008800078DC8DE795E075DC92DC092E000CAA0B74
:10089000BB0B8093150290931602A0931702B0939E
:1008A000180286E995E065DC82DC092E000CAA0BB3
:1008B000BB0B8093110290931202A0931302B0938A
:1008C000140280EB95E055DC72DC092E000CAA0BBB
:1008D000BB0B80930D0290930E02A0930F02B09376
:1008E00010025DDE89EC95E044DC07C080EE95E007
:1008F00040DC08C084EF95E03CDC86E096E039DC23
:100900004EDCD5CE29960FB6F894DEBF0FBECDBF14
:10091000DF91CF911F910F91FF90EF90DF90CF90DB
:10092000BF90AF909F908F907F906F90089585B902
:1009300010981198129A83ED90E30197F1F700C097
:1009400000001298089585B9109A1198129A83EDB3
:1009500090E30197F1F700C000001298089588E332
:10096000E6DF8CE0E4DF86E0E2DF81E0E0CF0895BF
:100970000F931F93CF93DF93FC0101900020E9F7C1
:100980003197E81BF90B1E161F064CF4EC018C0185
:100990000E0F1F1F8991D7DFC017D107D9F7DF913D
:1009A000CF911F910F91089581E0C1DF83ED90E316
:1009B0000197F1F700C0000008954AE0C9C1089509
:1009C000EAE0F1E0808183608083EBE0F1E0808108
:1009D0008C7F808308958230910519F0039799F0F8
:1009E0000895EBE0F1E08081816080832FE181EA6E
:1009F00097E0215080409040E1F700C000008081E6
:100A00008E7F80830895EBE0F1E0808182608083B7
:100A10002FE181EA97E0215080409040E1F700C04B
:100A2000000080818D7F808308958EEF8093080180
:100A30008091060184FF48C08091060185FF47C070
:100A40008091060186FF46C08091060188230CF044
:100A500044C083ED90E30197F1F700C000008DEFF3
:100A6000809308018091060184FF3AC080910601BD
:100A700085FF39C08091060186FF38C0809106014C
:100A80008823BCF583ED90E30197F1F700C00000E7
:100A90008BEF809308018091060184FF2DC0809127
:100AA000060185FF2CC08091060186FF2BC0809136
:100AB0000601882354F583ED90E30197F1F700C018
:100AC000000088EC90E0089583E090E0089586E0CF
:100AD00090E0089589E090E0089584E690E008951C
:100AE00082E090E0089585E090E0089588E090E04D
:100AF000089580E090E0089581E090E0089584E01A
:100B000090E0089587E090E0089583E690E00895EE
:100B1000CF93DF931F921F92CDB7DEB7EFDB1DDBC4
:100B2000A6DC80E090E006DBCB01E1D001DD75DBE7
:100B3000509809E610E0D8018C9181608C93E89A76
:100B4000789486DDEAE0F1E08081836080838FEF36
:100B500084B981B947E051E02FE0FA0120839DB1CB
:100B600094609DB99DB984B981B9208390819F70AB
:100B70009083E8E0F1E09081906F9083EAE6F0E006
:100B800090819C609083D8019C9193609C9390810C
:100B90009F6090839DB391639DBB90819C60908387
:100BA0009C9193609C9390819F60908384B981B95C
:100BB000FA01208384E08DB903DFD1DE85E296E07F
:100BC000D7DEFFE32DE083E0F15020408040E1F7E5
:100BD00000C00000E9DE29DF8C01883C9105D9F3D3
:100BE000E3DE0230110539F48EE296E0C1DE82E0E8
:100BF00090E0F1DE20C00330110539F48DE396E07A
:100C0000B7DE83E090E0E7DE16C00436110521F47C
:100C100081E994E0ADDE0FC00336110521F48CE4C8
:100C200096E0A6DE08C0BE016F5F7F4FC801C5DE3B
:100C3000CE0101969DDE9FE9A6E8B1E09150A0406B
:100C4000B040E1F700C00000C6CFEE0FFF1F881FC5
:100C50008BBF0790F691E02D19948F929F92AF92DF
:100C6000BF92CF92DF92EF92FF92CF93DF93EC018E
:100C7000688179818A819B81611571058105910562
:100C800021F464E279ED8BE597E02DE133EF41E06B
:100C900050E09DD349015A019B01AC01A7EAB1E4A0
:100CA000B2D36B017C01ACEEB4EFA5019401B7D3D4
:100CB000DC01CB018C0D9D1DAE1DBF1DB7FF03C018
:100CC0000197A109B04888839983AA83BB839F7742
:100CD000DF91CF91FF90EF90DF90CF90BF90AF90DA
:100CE0009F908F900895B9CF80E092E0B6CFA0E0BA
:100CF000B0E08093000290930102A0930202B093AF
:100D000003020895FC0188279927E8942191203255
:100D1000E9F3293010F02E30C8F32B3239F02D32A0
:100D200031F4689403C01ED0820F911D219120538D
:100D30002A30C8F31EF4909581959F4F0895FB01CA
:100D4000DC018D91019080190110D9F3990B089560
:100D5000BB274A3031F4992322F4BDE29095819566
:100D60009F4F09C07AE0979F902D879F802D910D0E
:100D700011240895BB27FB015527AA27880F991F27
:100D8000AA1FA41710F0A41B83955051B9F7A05DBA
:100D9000AA3308F0A95DA193009779F7B111B19337
:100DA0001192CB0141C20F931F93CF93DF93CDB725
:100DB000DEB72E970FB6F894DEBF0FBECDBF0E89FB
:100DC0001F8986E08C831A8309838FEF9FE79E83B8
:100DD0008D83AE01465E5F4F688D798DCE010196A1
:100DE00010D0EF81F885E00FF11F10822E960FB61C
:100DF000F894DEBF0FBECDBFDF91CF911F910F9151
:100E000008952F923F924F925F926F927F928F92AE
:100E10009F92AF92BF92CF92DF92EF92FF920F9389
:100E20001F93CF93DF93CDB7DEB72B970FB6F89410
:100E3000DEBF0FBECDBF6C017B018A01FC011782B2
:100E40001682838181FFBFC1CE0101963C01F6016C
:100E50009381F70193FD859193FF81917F01882311
:100E600009F4ADC1853239F493FD859193FF8191E9
:100E70007F01853221F4B60190E0E6D1E8CF912CD4
:100E8000212C312CFFE1F315D8F08B3279F038F4B6
:100E9000803279F08332A1F4232D20611DC08D3280
:100EA00061F0803369F4232D216016C0832D8260A8
:100EB000382EE32DE4603E2E2AC0F32DF8601DC0CD
:100EC00037FC2DC020ED280F2A3040F08E32B9F4C7
:100ED00036FC75C1232D2064322E19C036FE06C0A3
:100EE0008AE0989E200D1124922E11C0EAE02E9ED9
:100EF000200D1124222EF32DF0623F2E08C08C36D7
:100F000021F4832D8068382E02C0883641F4F70121
:100F100093FD859193FF81917F018111B3CF982F2C
:100F20009F7D9554933028F40C5F1F4F9FE3998366
:100F30000DC0833631F0833771F0833509F055C029
:100F400020C0F801808189830E5F1F4F882483941D
:100F5000912C530112C02801F2E04F0E511CF801F0
:100F6000A080B18036FE03C0692D70E002C06FEF33
:100F70007FEFC5014ED14C018201F32DFF773F2E4B
:100F800015C0280122E0420E511CF801A080B1805A
:100F900036FE03C0692D70E002C06FEF7FEFC50120
:100FA0002DD14C01F32DF0683F2E820133FC19C086
:100FB000822D90E088169906A0F4B60180E290E0B8
:100FC00043D12A94F5CFF50137FC859137FE819105
:100FD0005F01B60190E038D121102A9421E0821AF5
:100FE00091088114910479F7E1C0843611F08936B3
:100FF00039F5F80137FE07C06081718182819381E4
:101000000C5F1F4F08C060817181072E000C880B98
:10101000990B0E5F1F4FF32DFF763F2E97FF09C0F0
:1010200090958095709561957F4F8F4F9F4FF06899
:101030003F2E2AE030E0A30143D1882E861844C019
:10104000853731F4232D2F7EB22E2AE030E025C0E3
:10105000932D997FB92E8F36C1F018F4883579F029
:10106000AEC0803719F0883721F0A9C0E92FE061C0
:10107000BE2EB4FE0DC0FB2DF460BF2E09C034FEA1
:101080000AC0292F2660B22E06C028E030E005C035
:1010900020E130E002C020E132E0F801B7FE07C0F5
:1010A00060817181828193810C5F1F4F06C06081D6
:1010B000718180E090E00E5F1F4FA30101D1882E67
:1010C0008618FB2DFF773F2E36FE0DC0232D2E7F79
:1010D000A22E891458F434FE0BC032FC09C0832DB3
:1010E0008E7EA82E05C0B82CA32C03C0B82C01C03E
:1010F000B92CA4FE0FC0FE01E80DF11D80818033E4
:1011000021F49A2D997EA92E09C0A2FE06C0B3949F
:10111000B39404C08A2D867809F0B394A3FC10C060
:10112000A0FE06C0B21480F4280C922C9B180DC0AF
:10113000B21458F4B60180E290E086D0B394F8CFB0
:10114000B21418F42B1802C0982C212CA4FE0FC046
:10115000B60180E390E078D0A2FE16C0A1FC03C0E7
:1011600088E790E002C088E590E0B6010CC08A2DC7
:10117000867851F0A1FE02C08BE201C080E2A7FC9C
:101180008DE2B60190E060D0891430F4B60180E3BE
:1011900090E05AD09A94F8CF8A94F301E80DF11DAB
:1011A0008081B60190E050D08110F6CF222009F462
:1011B0004ECEB60180E290E047D02A94F7CFF601F8
:1011C0008681978102C08FEF9FEF2B960FB6F89420
:1011D000DEBF0FBECDBFDF91CF911F910F91FF906A
:1011E000EF90DF90CF90BF90AF909F908F907F90C7
:1011F0006F905F904F903F902F900895FC01059065
:10120000615070400110D8F7809590958E0F9F1F08
:101210000895FC016150704001900110D8F780954D
:1012200090958E0F9F1F0895DC01FC01672F71912F
:101230007723E1F7329704C07C916D9370836291BC
:10124000AE17BF07C8F308950F931F93CF93DF9393
:10125000FB01238121FD03C08FEF9FEF2CC022FFF4
:1012600016C046815781248135814217530744F4C3
:10127000A081B1819D012F5F3F4F318320838C93EB
:10128000268137812F5F3F4F3783268314C08B0120
:10129000EC01FB010084F185E02D1995892BE1F625
:1012A000D80116968D919C911797019617969C934D
:1012B0008E931697CE01DF91CF911F910F910895D4
:1012C000FA01AA27283051F1203181F1E8946F9377
:1012D0006E7F6E5F7F4F8F4F9F4FAF4FB1E03ED01D
:1012E000B4E03CD0670F781F891F9A1FA11D680FBB
:1012F000791F8A1F911DA11D6A0F711D811D911DEE
:10130000A11D20D009F468943F912AE0269F112462
:101310003019305D3193DEF6CF010895462F4770C6
:10132000405D4193B3E00FD0C9F7F6CF462F4F7021
:10133000405D4A3318F0495D31FD4052419302D07F
:10134000A9F7EACFB4E0A695979587957795679525
:10135000BA95C9F700976105710508959B01AC0125
:101360000A2E06945795479537952795BA95C9F74C
:10137000620F731F841F951FA01D0895DC01A40F29
:10138000B51F4150504040F0CB01840F951F2E9166
:1013900005D041505040D8F70895262FF999FECF37
:1013A00092BD81BDF89A019700B4021639F01FBAB8
:1013B00020BD0FB6F894FA9AF99A0FBE08950396D5
:1013C000272FECDFEADF252FE9DF242FE7CF052EDB
:1013D00097FB16F400940FD057FD05D024D007FCDE
:1013E00002D046F408C050954095309521953F4F66
:1013F0004F4F5F4F089590958095709561957F4F01
:101400008F4F9F4F089531D0A59F900DB49F900DA1
:10141000A49F800D911D11240895B7FFF4CFF3DF31
:10142000821B930B0895A1E21A2EAA1BBB1BFD0180
:101430000DC0AA1FBB1FEE1FFF1FA217B307E407B3
:10144000F50720F0A21BB30BE40BF50B661F771F0B
:10145000881F991F1A9469F76095709580959095EB
:101460009B01AC01BD01CF010895A29FB001B39FC4
:10147000C001A39F700D811D1124911DB29F700D9D
:0C148000811D1124911D0895F894FFCFE8
:10148C000100000032353600313233340040420F57
:10149C000060E3160080841E00204D6F74696F6E2F
:1014AC002044657465637465642100546F74616CC9
:1014BC0020436F756E743A202564000A54656D7074
:1014CC006F726172792061636365737320657870E4
:1014DC00697265642E204163636573732064656E65
:1014EC006965642E0D0A000D0A5365636F6E6420E6
:1014FC00466C6F6F7220526174653A20000D0A546D
:10150C006869726420466C6F6F7220526174653A20
:10151C0020000A54656E616E74204D616E616765C2
:10152C006D656E742053797374656D204D656E75A1
:10153C000D0A00312E205061792052656E740D0A0F
:10154C00322E204163636573732057617368726F29
:10155C006F6D0D0A332E2041737369676E205465CD
:10156C006D706F72617279204163636573730D0ADC
:10157C00342E20436865636B2052656E742053745F
:10158C00617475730D0A352E205669657720466C8B
:10159C006F6F722052617465730D0A362E2053657D
:1015AC007420466C6F6F72205261746573202841F1
:1015BC00646D696E290D0A372E20457869742053A5
:1015CC00797374656D0D0A00456E74657220796FC0
:1015DC0075722063686F6963653A20000A52454E44
:1015EC0054205041594D454E542053454354494F76
:1015FC004E0D0A53656C65637420466C6F6F7220D8
:10160C00283120666F7220466972737420466C6FA5
:10161C006F722C203220666F72205365636F6E647C
:10162C0020466C6F6F722C203320666F72205468CA
:10163C0069726420466C6F6F72293A2000496E768D
:10164C00616C696420666C6F6F722073656C656386
:10165C0074696F6E2E0D0A000A456E7465722061F6
:10166C006D6F756E7420746F207061793A20005222
:10167C00656E74207061796D656E742070726F6325
:10168C006573736564207375636365737366756CDA
:10169C006C792E0D0A00496E636F7272656374204B
:1016AC00616D6F756E7420656E74657265642E2045
:1016BC0052656E74207061796D656E742066616917
:1016CC006C65642E0D0A0041636365737320646559
:1016DC006E6965642E2052656E7420697320647582
:1016EC00652E0D0A000A57415348524F4F4D204169
:1016FC0043434553530D0A456E74657220776173ED
:10170C0068726F6F6D2070617373776F72643A20BB
:10171C00002A000A416363657373206772616E74FB
:10172C0065642E0D0A002041636365737320576155
:10173C007368726F6F6D000A4D6F746F72207374E3
:10174C006F707065642E0D0A000A496E76616C69C3
:10175C00642061636365737320636F64652E0D0A87
:10176C00000A41535349474E2054454D504F524166
:10177C005259204143434553530D0A456E746572CB
:10178C00206120342D64696769742061636365731B
:10179C007320636F64653A20000A456E746572208D
:1017AC0074696D656F757420696E207365636F6EF7
:1017BC0064733A20000A54656D706F7261727920FF
:1017CC006163636573732061737369676E65642EFF
:1017DC000D0A0052656E7420697320706169642E65
:1017EC000D0A000A41444D494E3A205345542046B7
:1017FC004C4F4F522052415445530D0A00456E74C4
:10180C00657220466972737420466C6F6F72205239
:10181C006174653A2000456E746572205365636F80
:10182C006E6420466C6F6F7220526174653A2000B2
:10183C00456E74657220546869726420466C6F6FD3
:10184C007220526174653A2000466C6F6F72207280
:10185C006174657320757064617465642E0D0A0083
:10186C0045786974696E672073797374656D2E2E73
:10187C002E0D0A00496E76616C6964206F70746974
:10188C006F6E2E0D0A000D0A507265737320616E17
:10189C0079206B657920746F20636F6E74696E7537
:1018AC00652E2E2E0052656164792E2E2E0041631A
:1018BC0063657373204C6576656C203200416363FD
:0E18CC00657373204C6576656C203300230035
:00000001FF
